:020000040800F2
:100000009004002001010008831100080D10000871
:10001000811100086D01000879150008000000003A
:100020000000000000000000000000008711000830
:100030006F01000800000000851100088911000808
:100040001B0100081B0100081B0100081B01000820
:100050001B0100081B0100081B0100081B01000810
:100060001B0100081B0100081B0100081B01000800
:100070001B0100081B0100081B0100081B010008F0
:100080001B0100081B0100081B0100081B010008E0
:100090001B0100081B0100081B0100081B010008D0
:1000A0001B0100081B0100081B0100081B010008C0
:1000B000191200081B0100081B0100081B010008A1
:1000C0001B0100081B0100081B0100081B010008A0
:1000D0001B0100081B0100081B0100081B01000890
:1000E0001B0100081B0100081B010008DFF80CD0F1
:1000F00000F02AF80048004701160008900400208C
:100100000648804706480047FEE7FEE7FEE7FEE7B1
:10011000FEE7FEE7FEE7FEE7FEE7FEE7D111000897
:10012000ED000008D2B201E000F8012B491EFBD21D
:1001300070470022F6E710B513460A4604461946F2
:10014000FFF7F0FF204610BD064C074D06E0E068C3
:1001500040F0010394E8070098471034AC42F6D30E
:10016000FFF7C8FFC0160008E0160008FEE770475A
:100170000548002102685163026891630268D163F7
:100180000068016470470000100000207047000004
:100190002DE9F84FDFF8B891002409F1040A0AF1BB
:1001A000040B23460F270BF1040EC9E00125A540DF
:1001B0002A40AA427DD1674ED1F804C0ACEB0608B4
:1001C000B44532D014DCBCF1030F3AD009DCBCF1E9
:1001D000000F2AD0BCF1010F1CD0BCF1020F31D1AD
:1001E0001DE0BCF1110F17D0BCF1120F2AD119E09C
:1001F000B8F5881F19D006DCB8F5803F15D0B8F5E2
:10020000801F1FD111E0B8F5001F0ED0B8F5041FF4
:1002100018D10AE0CB6815E0CB681B1D12E0CB6853
:1002200008330FE0CB680C330CE08B682BB1012B4B
:100230004FF0080303D0456104E0042302E00561A8
:1002400000E00023FF2A01D8064601E000F1040681
:100250004FEA840501D9A5F12005D6F8008007FAF8
:1002600005FC28EA0C0803FA05F548EA0508C6F873
:1002700000804D68ED0062D5374DAE6946F001064D
:10028000AE61AD6924F0030605F001050095334D1C
:1002900006EB050CDCF80850A607360F07FA06F83F
:1002A00025EA0805DFF8B880404503D14FF0000883
:1002B00017E044E0DFF8AC80404502D14FF0010880
:1002C0000FE0DFF8A480404502D14FF0020808E0BB
:1002D000DFF89880404502D14FF0030801E04FF06D
:1002E000040808FA06F848EA0508CCF808804D68C2
:1002F000D9F80060ED034D4601D5164300E0964362
:100300002E604D68DAF80060AD03554601D51643FE
:1003100000E096432E604D68DBF80060ED025D461C
:1003200001D5164300E096432E604D68DEF800606C
:10033000AD02754601D5164300E096432E60641C5D
:100340000D682A46E5407FF431AFBDE8F88F000024
:1003500000040140000011100010024000000140A4
:1003600000080140000C0140001001400014014051
:100370000AB1016170470904FBE700000148806889
:100380007047000000000020024881680278114494
:100390008160704700000020074810B5016841F0F7
:1003A00010010160032000F075F8002000F006F84D
:1003B00000F024F8002010BD0020024070B50D4D63
:1003C00004464FF47A712878B1FBF0F00A490968C5
:1003D000B1FBF0F000F0ECFA48B9102C07D2002283
:1003E0002146501E00F036F800206C6070BD0120E0
:1003F00070BD0000000000200C0000200C4808B573
:10040000816941F001018161816901F0010100917F
:10041000C16941F08051C161C06900F08050009015
:100420000448416821F0E06141F08061416008BD0D
:100430000010024000000140002809DB00F01F020C
:10044000012191404009800000F1E020C0F8001136
:1004500070470000F0B40E4B1B680C46C3F3022338
:10046000C3F10705042D00D90425191D072901D260
:10047000002300E0DB1E012606FA05F1491E21409B
:1004800099409E40761E16403143F0BC01F075B88D
:100490000CED00E0064900F0070208684FF6FF0384
:1004A000184040EA0220034A1043086070470000E9
:1004B0000CED00E00000FA052DE9F0470F460500BD
:1004C00061D0434E306800F00700B84209D230686E
:1004D00020F0070038433060306800F00700B84271
:1004E00051D128683B4C810712D5400703D560687D
:1004F00040F4E06060602878000703D5606840F44D
:10050000605060606068A96820F0F0000843606097
:100510002878C00728D06868012810D021680228F0
:1005200010D0890700292EDA616821F00301014308
:100530006160FFF723FF804641F288390DE02168B2
:100540008903EFE78901EDE7FFF718FFA0EB08014A
:10055000494502D90320BDE8F0876068696800F06A
:100560000C00B0EB810FEFD1306800F00700B8420B
:100570000BD9306820F0070038433060306800F055
:100580000700B84201D00120E5E72878400705D5EB
:100590006068E96820F4E06008436060287800073C
:1005A00006D56068296920F4605040EAC1006060A7
:1005B00000F038F86168084AC1F30311515CC84083
:1005C0000649086006480068FFF7F8FE0020C2E709
:1005D0000020024000100240A81600080C00002075
:1005E000040000200448054900684968044AC1F332
:1005F0000221515CC84070470C00002000100240EE
:10060000B81600080448054900684968044AC1F35F
:10061000C221515CC84070470C000020001002400D
:10062000B816000812A185B00FC98DE80F0014A0FC
:10063000144A006804905168134801F00C03042B1D
:1006400010D0082B0ED1C1F38343C9031DF803005A
:100650000AD5516804AAC1F34041515C0A4A50438B
:10066000B0FBF1F005B0704708494843FAE70000D5
:1006700002030405060708090A0B0C0D0E0F1010E3
:10068000010200000010024000127A0000093D0043
:100690002DE9F84F040070D02078C04DC00749D034
:1006A0006868C0F38100012807D06868C0F3810042
:1006B000022809D16868C00306D52868800339D5A7
:1006C00060680028E7D035E06068B0F5803F0BD067
:1006D00010B1B0F5A02F11D0286820F48030286028
:1006E000286820F4802002E0286840F480302860E8
:1006F000606890B1FFF742FE06460AE0286840F4C1
:1007000080202860F0E700BFFFF738FE801B6428D8
:1007100073D828688003F7D50CE0FFF72FFE064654
:1007200005E000BFFFF72AFE801B6428F0D8286888
:100730008003F7D420789A4E80074FF001094FF0DC
:10074000000839D5686810F00C0F07D06868C0F34E
:100750008100022809D16868C00306D42868800790
:1007600014D52069012808D110E02069B0B1C6F87D
:100770000090FFF703FE074605E00AE1FFF7FEFDE4
:10078000C01B0228C4D828688007F7D5286861698B
:1007900020F0F80040EAC10028600DE0C6F80080B3
:1007A000FFF7ECFD074604E0FFF7E8FDC01B022859
:1007B00023D828688007F7D4207800072CD57948FB
:1007C000A169D9B1C0F80090FFF7D8FD074604E051
:1007D000FFF7D4FDC01B02280FD8686A8007F7D541
:1007E00071484FF4FA510068B0FBF1F0009000BF7F
:1007F0000098411E0091FAD20EE080E0C0F800801F
:10080000FFF7BCFD074604E0FFF7B8FDC01B022858
:1008100075D8686A8007F7D42078400760D5E86902
:100820000027C00008D4E86940F08050E861E8691A
:10083000012700F0805000905C480168C90513D47E
:100840000168834641F480710160FFF797FD82469D
:1008500006E000BFFFF792FDA0EB0A0064284ED827
:10086000DBF80000C005F5D5E06801280AD008B122
:10087000052813D0286A20F001002862286A20F099
:10088000040002E0286A40F001002862E06841F2BA
:10089000883B98B1FFF772FD82460BE0286A40F072
:1008A00004002862EEE700BFFFF768FDA0EB0A0135
:1008B00059455AD8286A8007F6D50CE0FFF75EFD47
:1008C000824605E0FFF75AFDA0EB0A0159454CD8D6
:1008D000286A8007F6D41FB1E86920F08050E861EB
:1008E000E06988B36968C1F38101022944D0022814
:1008F000C6F8608004D0FFF741FD044638E034E0DC
:10090000FFF73CFD074604E0FFF738FDC01B022857
:100910002BD828688001F7D4206AB0F5803F05D134
:100920006868A16820F4003008436860D4E90801D1
:100930000843696821F4741108436860C6F8609040
:10094000FFF71CFD044606E025E000BFFFF716FD9B
:10095000001B022809D828688001F7D51BE000BFDA
:10096000FFF70CFD001B022802D90320BDE8F88F19
:1009700028688001F4D40EE00128F7D06868226A64
:1009800000F48031914204D1616A00F47010884211
:1009900001D00120EAE70020E8E700000010024053
:1009A00000004242800442420C00002000700040DF
:1009B00010B5401EB0F1807F01D3012010BD4FF073
:1009C000E02460610F21601700F0D7FD0020A061D6
:1009D00007202061002010BD7047704770B590F867
:1009E0003C20012A19D0012400F83C4F0222427019
:1009F00050F83C3C5A689D6822F070060A684968C5
:100A0000324325F0800529435A6050F83C2C916010
:100A1000447000210170084670BD022070BD10B501
:100A2000040003D094F83D0010B107E0012010BD90
:100A3000002084F83C00204600F00CF8022084F8E6
:100A40003D00211D206800F0EDFB012084F83D00F1
:100A5000002010BD08B50068B0F1804F12D10A48DF
:100A6000C16941F00101C161C069002200F00100CB
:100A7000009011461C20FFF7EDFCBDE808401C204B
:100A8000FFF7DABC08BD000000100240022180F828
:100A90003D1001688A6802F00702062A03D00A683E
:100AA00042F001020A60012180F83D1000207047E9
:100AB00070B5044690F83C00012817D0012584F851
:100AC0003C50022084F83D002068826822F07702C2
:100AD00022F47F4282600868502830D00DDC202844
:100AE0004DD005DC98B310283BD148E0022070BD02
:100AF000302844D0402834D139E0602828D07028EC
:100B000006D0B0F5805F2CD0B0F5005F29D10AE0A7
:100B1000CB68D1E90121206800F0C7FB206881681B
:100B200041F0770109E0CB68D1E90121206800F0AC
:100B3000BCFB2068816841F48041816011E0CA6893
:100B40004968206800F066FC5021206807E016E044
:100B5000CA684968206800F06EFC6021206800F0D7
:100B6000AEFB84F83D50002084F83C0070BDCA689C
:100B70004968206800F04EFC40212068EFE72268B9
:100B800001461046EBE7704770B5044600680169FE
:100B90004FF00005C943890715D4C168C9438907C7
:100BA00011D4E91E01610120207720688069800747
:100BB000204602D0FFF7E7FF04E000F0BDF8204632
:100BC00000F03FF9257720680169C943490717D428
:100BD000C168C943490713D46FF0040101610220C1
:100BE00020772068806910F4407F204602D0FFF70C
:100BF000CAFF04E000F0A0F8204600F022F92577B3
:100C000020680169C943090716D4C168C9430907A7
:100C100012D46FF008010161042020772068C069B8
:100C20008007204602D0FFF7AEFF04E000F084F812
:100C3000204600F006F9257720680169C943C906F6
:100C400017D4C168C943C90613D46FF010010161FC
:100C5000082020772068C06910F4407F204602D029
:100C6000FFF791FF04E000F067F8204600F0E9F894
:100C7000257720680169C943C90708D1C168C943FC
:100C8000C90704D1891E0161204600F0F7F82068E9
:100C90000169C943090609D4C168C943090605D4D5
:100CA0006FF0800101612046FFF796FE2068016920
:100CB000C943490609D4C168C943490605D46FF040
:100CC00040010161204600F0DAF820680169C9435B
:100CD00089060BD4C168C943890607D46FF0200187
:100CE00001612046BDE87040FFF777BE70BD00008F
:100CF00000B585B000210091019102910391006837
:100D0000B0F1804F12D10A48816941F0040181613C
:100D10008069694600F0040004900F2000900220D2
:100D20000190032003900348FFF732FA05B000BD9D
:100D30000010024000080140704770B5044690F86A
:100D40003C000D4601280DD0012684F83C600220AD
:100D500084F83D0042B1042A18D0082A2AD00C2A6F
:100D60004DD139E0022070BD206800F0B1FA206852
:100D7000816941F0080181612068816921F00401E5
:100D80008161206881692A69114311E0206800F0BF
:100D9000C7FA2068816941F4006181612068816936
:100DA00021F480618161206881692A6941EA022118
:100DB000816124E0206800F0DFFA2068C16941F019
:100DC0000801C1612068C16921F00401C161206886
:100DD000C1692A69114311E0206800F0F9FA20681E
:100DE000C16941F40061C1612068C16921F4806179
:100DF000C1612068C1692A6941EA0221C16184F8A0
:100E00003D60002084F83C0070BD10B5040003D0A4
:100E100094F83D0010B107E0012010BD002084F8D7
:100E20003C00204600F00CF8022084F83D00211D13
:100E3000206800F0F7F9012084F83D00002010BD83
:100E40007047704710B504460068012200F020FA90
:100E500009492068884203D1416C41F40041416452
:100E60002068816801F00701062903D0016841F07C
:100E700001010160002010BD002C01407047704747
:100E800070B5040004D094F83900002510B106E0D4
:100E9000012070BD84F83850204600F023F824204B
:100EA00084F839002068C16821F40051C1602046EF
:100EB00000F0D4FA2068016921F4904101612068B2
:100EC000416921F02A0141612068C16841F4005163
:100ED000C160E563202084F8390084F83A000020DE
:100EE00070BD000030B585B00024009401940294D8
:100EF000039400681449884224D11448816941F45C
:100F000080418161816901F480410491816941F0EE
:100F10000401816180690E4D00F0040004904FF4DB
:100F2000007000900220019003200390694628463B
:100F3000FFF72EF92815CDE90004694628460294EA
:100F4000FFF726F905B030BD00380140001002401F
:100F5000000801402DE9F843044690F83A0099460C
:100F600016460D4620284FD195B18EB194F8380021
:100F7000012849D0012084F838000027E7632220A7
:100F800084F83A00FFF7FAF9A6858046E68531E055
:100F90000120BDE8F883E08D401EE085A06843464F
:100FA000B0F5805F4FF000024FF020012046CDF8F1
:100FB000009004D000F0AEFA98B10320E9E700F009
:100FC000A9FA0028F9D1206900282068406803D0D8
:100FD000C1B225F8011B0DE0C0F3080125F8021B82
:100FE00008E0206900282068406801D000F07F00F8
:100FF00005F8010BE08D0028CDD1202084F83A00BF
:1010000084F838700020C4E70220C2E7FEE7000041
:1010100070B586B00024184800940194029403949B
:10102000816941F010018161816901F01001049131
:10103000816941F020018161816901F02001049101
:10104000816941F00401816180690C4E00F0040067
:101050004FF400550490002229463046FFF788F9E6
:1010600001200095CDE90104022003906946304635
:10107000FFF78EF806B070BD00100240001001406E
:1010800010B58EB000240794089409940A940B9428
:101090001C2168460C94FFF74CF82A484FF0804119
:1010A000016040F21911C0E901144FF48071C0E9E8
:1010B00003148461FFF7B3FC08B1FFF767F84FF43E
:1010C0008050079007A91F48FFF7F2FC08B1FFF70F
:1010D0005DF81C48FFF799FE08B1FFF757F80B942D
:1010E0000BA918480C94FFF779FC08B1FFF74EF8EC
:1010F0006020CDE90004029400226946114804945E
:10110000FFF71BFE08B1FFF741F8042269460D48BE
:10111000FFF713FE08B1FFF739F8082269460948BE
:10112000FFF70BFE08B1FFF731F80C2269460548BE
:10113000FFF703FE08B1FFF729F80248FFF7D8FDD3
:101140000EB010BD100000200C4810B50A49016017
:101150004FF4E1314160002181600C22C160C0E99F
:1011600004128161C161FFF78BFE002803D0BDE846
:101170001040FFF70BB810BD0038014050000020B0
:10118000FEE7704770477047FFF7FEB810B590B0A4
:1011900028216846FEF7CDFF14210AA8FEF7C9FFF3
:1011A0000220009001200490102000240590079454
:1011B0006846FFF76DFA0F20CDE90A040C940D94F0
:1011C00000210AA80E94FFF777F910B010BD0000B7
:1011D0000D48016841F00101016041680B4A11406E
:1011E000416001680A4A11400160016821F48021D0
:1011F0000160416821F4FE0141604FF41F018160EC
:101200000449C00308607047001002400000FFF866
:10121000FFFFF6FE08ED00E00148FFF7B5BC000057
:1012200010000020F0B50268164B174C174D4FF018
:101230008047984205D0B84203D0A04201D0A842CE
:1012400003D122F070064A683243984205D0B84272
:1012500003D0A04201D0A84203D122F44074CA684E
:1012600022434C6922F08002224302608A68C262F3
:101270000A688262984201D10969016301214161D2
:10128000F0BD0000002C01400004004000080040B8
:1012900010B501F01F030121046A99408C430462D8
:1012A000016A9A401143016210BD10B5846842EA98
:1012B000032224F47F440A432243826010BD8268E3
:1012C00022F070020A4342F007018160704700007B
:1012D00030B5026A22F001020262026A4368846940
:1012E00024F073050C682C4322F002058A682A4317
:1012F0000A4DA8420BD122F00805CA6823F44073B6
:101300002A434D6922F004021D438B692B4343603D
:10131000846149684163026230BD0000002C0140D5
:1013200030B5026A22F010020262026A43688469E0
:101330000D6824F4E64444EA05248D6822F0200276
:1013400042EA05120B4DA8420ED1CD6822F0800270
:1013500042EA05124D6923F4406343EA85038D692F
:1013600022F0400243EA8503436084614968816357
:10137000026230BD002C014030B5026A22F4807256
:101380000262036A4268C46923F4007324F073059F
:101390000C682C438D6843EA05230C4DA8420ED1FE
:1013A000CD6823F4006343EA05234D6922F44052DB
:1013B00042EA05128D6923F4806342EA0512426015
:1013C000C4614968C163036230BD0000002C014064
:1013D00030B5026A22F480520262046A4268C3692C
:1013E0000D6823F4E64343EA05238D6824F4005492
:1013F00044EA0534064DA84204D14D6922F48042E6
:1014000042EA85124260C36149680164046230BDEA
:10141000002C014010B5036A046A24F00104046240
:10142000846924F0F00444EA021423F00A020A4317
:101430008461026210BD10B5036A23F010030362D9
:101440008369046A23F4704343EA023224F0A00360
:1014500043EA01118261016210BD00002DE9F041F3
:10146000044600680169E26821F4405111430161BA
:101470002169A0680843616908432168CA6841F28C
:101480000C639A430243CA6020684169A26921F44F
:101490004071114341611E4920686425322688420B
:1014A00002D1FFF7AFF801E0FFF79CF800EBC001B5
:1014B00001EB001160686FF018078000B1FBF0F2DB
:1014C000B2FBF5F2B1FBF0F37A4303EB8202B1FB1E
:1014D000F0F306EB0212B2FBF5F2B3FBF5F302F008
:1014E000F00202EB0312B1FBF0F3B1FBF0F0B0FB42
:1014F000F5F0784303EB800006EB0010B0FBF5F04D
:10150000216800F00F0010448860BDE8F081000001
:10151000003801402DE9F041984617460E46044632
:10152000069D1DE0681C1BD02DB1FEF727FFA0EB28
:101530000800A84214D92068C16821F4D071C160A4
:101540002068416921F001014161202084F83900BF
:1015500084F83A00002084F838000320BDE8F081C8
:101560002068006836EA000004D00020B842D9D0D4
:101570000020F3E70120F9E7FEE70907090E00283C
:1015800004DB00F1E02080F80014704700F00F0049
:1015900000F1E02080F8141D704702E008C8121F17
:1015A00008C1002AFAD170477047002001E001C14C
:1015B000121F002AFBD1704700B50346FEF7D8FD85
:1015C000024801688B630068036400BD10000020BE
:1015D00000B50346FEF7CCFD024801684B63006886
:1015E000C36300BD1000002000B50346FEF7C0FD38
:1015F000024801684B630068036400BD10000020CE
:1016000008B5FEF7C9FEFFF7C1FDFFF701FDFFF7C3
:101610009BFDFFF735FD1C48FFF738FA00211A48FB
:10162000FFF710FC04211848FFF70CFC08211648AE
:10163000FFF708FC0C211448FFF704FC6423012287
:1016400069461248FFF786FC0028F7D19DF8000094
:10165000322808D033280AD034280CD035280ED0B0
:10166000FEF786FDEAE7FF20FFF7B2FFE6E7FF207F
:10167000FFF7A2FFE2E7FF20FFF7B6FFDEE7FF205C
:1016800000F006F8DAE7000010000020500000200B
:1016900000B50346FEF76CFD024801688B630068E5
:1016A000C36300BD10000020000000000000000027
:1016B00001020304060708090000000001020304F8
:1016C000E016000800000020100000009A15000835
:1016D000F01600081000002080040000AA15000881
:1016E0000100000010000000000000000024F400D1
:04000005080000ED02
:00000001FF
